:020000040801F1
:10000000E89C012061020108B52101085B2001087C
:10001000B12101084F150108FD8A01080000000008
:10002000000000000000000000000000A101010825
:10003000651A010800000000FD010108CD45010816
:100040007B0201087B0201087B0201087B02010898
:100050007B0201087B0201087B0201087B02010888
:100060007B0201087B0201087B0201087B02010878
:100070007B0201087B020108551701087B02010879
:100080007B0201087B0201087B0201087B02010858
:100090007B0201087B0201087B0201087B02010848
:1000A0007B0201087B0201087B0201087B02010838
:1000B0007B020108854701087B0201087B020108D9
:1000C0007B0201087B0201087B0201087B02010818
:1000D0007B020108C54C0108F54C0108754D01086B
:1000E0007B0201087B0201087B0201087B020108F8
:1000F0007B0201087B0201087B0201087B020108E8
:100100007B020108D12901087B0201087B0201085A
:10011000F94B01082D4C01087B0201087B02010804
:100120007B0201087B0201087B0201087B020108B7
:100130007B0201087B0201087B0201087B020108A7
:100140007B0201087B0201087B02010831220108C1
:100150007B0201087B0201087B020108F54D0108C2
:100160007B0201087B0201087B0201087B02010877
:100170007B0201087B0201087B0201087B02010867
:100180007B0201087B020108DFF810D000F0FEFCC2
:1001900000480047A9100208AFF30080E89C012046
:1001A0002C4B19680868B0E8F04F80F30988BFF35A
:1001B0006F8F4FF0000080F311887047000000003F
:1001C00008480068006880F308884FF0000080F35A
:1001D000148862B661B6BFF34F8FBFF36F8F00DF35
:1001E00000BF00BF08ED00E0DFF80C00016841F43B
:1001F00070010160704700BF88ED00E0EFF30980F7
:10020000BFF36F8F134B1A681EF0100F08BF20ED5D
:10021000108A20E9F04F106009B44FF0100080F30D
:100220001188BFF34F8FBFF36F8F17F0A3F84FF014
:10023000000080F3118809BC19680868B0E8F04F25
:100240001EF0100F08BFB0EC108A80F30988BFF3CE
:100250006F8F7047A0050020EFF305807047000006
:100260000648804706480047FEE7FEE7FEE7FEE750
:10027000FEE7FEE7FEE7FEE7FEE7FEE71D470108B3
:10028000890101082DE9F0410024061B254671F182
:10029000000605DA01240027D0EB070067EB010117
:1002A000161E73F1000605DA0027D2EB07020125BE
:1002B00067EB030300F000FA86460E4617469C469D
:1002C000AC4204D00025D0EB050E65EB010624B14D
:1002D0000020D2EB000760EB030C704631463A4633
:1002E0006346BDE8F08140EA01039B0703D009E0C3
:1002F00008C9121F08C0042AFAD203E011F8013B12
:1003000000F8013B521EF9D27047D2B201E000F86A
:10031000012B491EFBD270470022F6E710B51346A9
:100320000A4604461946FFF7F0FF204610BD30B5D7
:1003300005462A460B4612F8010B13F8014B08B18B
:10034000A042F8D01CB1002802D06D1CF1E728466D
:1003500030BD421C10F8011B0029FBD1801A7047E8
:1003600010B5002200E0521C835C8C5CA34201D1DA
:10037000002BF8D1D8B2E1B2401A10BD30B5044616
:100380000020034600E05B1C934203D2E05CCD5C9E
:10039000401BF8D030BD30B505460020034600E0D4
:1003A0005B1C934205D2EC5CC85C201A01D1002C86
:1003B000F6D130BD2DE9F0410546002090460E46AD
:1003C000044600E0641C44450BD2285D00F0A5F90A
:1003D0000746305D00F0A1F9381A02D1295D0029E5
:1003E000F0D1BDE8F08100000FB400B58DB010A9C8
:1003F00009900B9000914FF0FF300A9000200C9074
:1004000005480690054807906A4609A80F9900F02C
:100410009FF90DB05DF814FB6D0701088B0701080B
:100420002DE9FF5F1D464FF0FF3BD5E901469146A0
:100430005F464FF00008A9697F1C01988847296A28
:10044000824688470028F6D1BAF1FF3F0CD024F449
:10045000C064002E19DD600614D5BAF12B0F09D047
:10046000BAF12D0F0ED103E0584604B0BDE8F09F5D
:1004700044F48064A9697F1C01988847761E8246EF
:10048000002E02DDBAF1300F03D0B9F1000F26D0F3
:1004900032E0A969761E44F400747F1C01988847F5
:1004A0008246002E05DDBAF1780F06D0BAF1580F5A
:1004B00003D0B9F1000F10D01EE0B9F1000F02D047
:1004C000B9F1100F18D1A969761E24F400747F1CAD
:1004D000019888478246102002E0082000E00A20A8
:1004E000814609E008FB0908A969761E44F40074F6
:1004F0007F1C019888478246002E05DD49465046FC
:1005000000F011F90028EDDAE96901988847A005A3
:1005100002D46FF00100A8E7E00725D1600613D5EB
:10052000600502D5C8F1000000E0404629680A1DB8
:100530002A600968220501D5087015E0220701D557
:10054000088011E008600FE02868011D296000683C
:10055000210502D580F8008006E0210702D5A0F829
:10056000008001E0C0F8008038467EE72DE9FF5F9B
:10057000D2E901A74FF00008916999461446DDF8C9
:1005800038B0464601988847054659EA0B0005D021
:1005900009E0A169761C019888470546216A28462A
:1005A00088470028F5D1681C03D05FEACA7005D0DF
:1005B00015E04FF0FF3004B0BDE8F09F2068011D4A
:1005C0002160D0F800800AE05FEACA7001D108F823
:1005D000015BA169761C7F1E019888470546002FA4
:1005E0001ADD681C18D0B9F1000F0DD0E81705EB23
:1005F000D060421120F01F0059F822102A1A012061
:1006000090400142E0D107E0BBF1000FDCD1216A4C
:10061000284688470028D7D0E16901988847BBF170
:10062000000F07D1002E05DD5FEACA7002D100215C
:1006300088F80010A068B84203DDBBF1000F03D0BA
:1006400017B16FF00100B6E73046B4E770B5064663
:1006500008F0D4FB046805460A220021304600F069
:10066000A5F82C6070BD00F0004230F000400AD0C8
:10067000C10D01F56071C0F3160042EA0151C208D4
:1006800040071143704700200146704730B50B46C4
:10069000014600202022012409E021FA02F59D42B2
:1006A00005D303FA02F5491B04FA02F52844151E86
:1006B000A2F10102F1DC30BD2DE9F05F054600201A
:1006C00092469B4688460646814640241BE02846C3
:1006D00041464746224600F07AFA53465A46C01A27
:1006E000914110D311461846224600F061FA2D1AA6
:1006F00067EB01084F4622460120002100F058FA1E
:1007000017EB00094E41201EA4F10104DFDC48462E
:1007100031462A464346BDE8F09FA0F14101192920
:1007200000D8203070473A2800D2303820F020021C
:10073000412A01D3A2F13700884201D34FF0FF30A4
:100740007047000002681144137801601846704732
:10075000D1600449516104491162002111611146BF
:1007600000F066BA450701081D0C0108426842B155
:10077000016811F8013B23B1521EC0E9001218466E
:1007800070470121C160881E704742685AB1C36832
:10079000016843B983688B4205D0491E521CC0E9E9
:1007A0000012002070474FF0FF3070472DE9F047EE
:1007B00091460F4680460446002614F8015B2DB191
:1007C00000F028FA0068405DC007F6D12B2D02D05A
:1007D0002D2D18D0641E4A463946204600F0C0FB35
:1007E00027B13968A14201D1C7F8008071054FF0E7
:1007F00002040BD54042002803DD08F0FFFA046034
:10080000A007BDE8F08746F48066E4E70028F8DA40
:1008100008F0F4FA04606FF00040F2E72DE9FE4FB3
:10082000804681EA0300C00F0C46009021F0004191
:1008300023F00045B8EB0200A94105D2404621460D
:1008400090461C460B46024623F00040104347D01A
:10085000270DC7F30A00C3F30A510290401A019012
:1008600040286BDAC3F3130040F4801B00989246D3
:1008700020B10023D2EB030A63EB0B0B019859461E
:10088000C0F14002504600F093F906460D4650462E
:100890005946019A00F0ABF910EB080061410024C1
:1008A00087EA115284EAE7731A4340D0009A62B390
:1008B000019A012A4FEA075215DC001B61EB020185
:1008C0004FF0004202EA0752CDE90042001C41F518
:1008D000801132462B4600F0A1FB03B0BDE8F08F3B
:1008E00040462146F9E7001B61EB0201001C41F57F
:1008F000801300185B412018A2F5001747EB030195
:1009000040EAD570B6196D4111E06D084FEA360620
:1009100045EAC0754FEA0752001B61EB0201001C5B
:1009200041F5801149084FEA300000195141324623
:100930002B4603B0BDE8F04F00F061BB00980122E8
:1009400040000023D0EB020263EBE07300982146E5
:100950004FEAE074B8EB000061EB0401E9E783F0D3
:1009600000435BE781F0004158E72DE9FE4F81EA43
:10097000030404F0004421F0004100944FF0000B08
:1009800023F0004350EA01045ED052EA03045BD036
:10099000C3F30A54C1F30A552C44A4F2F33401946E
:1009A000A0FB0254C1F3130141F48011C3F31303FC
:1009B00043F4801301FB024400FB034E840A970AB0
:1009C00044EA815447EA8357A4FB076802958D0ADD
:1009D00005FB07854FEA932C04FB0C542705029D69
:1009E0004FEA065847EA1637B5EB08056EEB070CD9
:1009F000870E920E47EA811742EA8312A7FB020193
:100A0000B6EB0B0164EB00042B0D43EA0C335E18CC
:100A100044EB1C50DA465146E7FB0201C5F31304D0
:100A20004FEA0B3343EA14534FEA0432019C43EA82
:100A30000603A4F10C040294009CCDE900B400F07C
:100A4000EDFA03B0BDE8F08F00200146F9E72DE98B
:100A5000F04D81EA030404F0004B21F000451446F8
:100A60004FF0000A23F0004150EA050220D054EA7A
:100A700001021DD0C5F30A570246C5F31303C1F3A3
:100A80001300C1F30A5640F4801543F48013A7EB1A
:100A90000608101BD64608F2FD3873EB050002D39A
:100AA00008F1010801E092185B41B8F1000F03DA88
:100AB00000200146BDE8F08D00204FF4801106466D
:100AC00084460EE0171B73EB050705D3121B63EB7F
:100AD000050306434CEA010C49084FEA300092181E
:100AE0005B4150EA0107EDD152EA030012D082EADD
:100AF000040083EA0501084305D0101BAB4106D270
:100B00000122002306E000224FF0004302E06FF0D4
:100B1000010253101AEB06004CEB085110EB0A00CF
:100B200041EB0B01BDE8F04D00F069BAC1F30A5288
:100B3000C1F3130140F2FF3341F480119A4202DA0B
:100B400000200146704740F233439A42A2F23342FA
:100B500002DC524200F03BB800F02AB830B5041E67
:100B600071F1000404DB4FF00044404264EB0101EA
:100B7000141E73F1000405DB1C464FF00043524283
:100B800063EB0403994208BF904230BD064C074D09
:100B900006E0E06840F0010394E80700984710344D
:100BA000AC42F6D3FFF7F4FA3CE502085CE5020834
:100BB000202A04DB203A00FA02F10020704791401D
:100BC000C2F1200320FA03F3194390407047202A12
:100BD00004DB203A21FA02F00021704721FA02F3E7
:100BE000D040C2F120029140084319467047202AA4
:100BF00006DBCB17203A41FA02F043EAE07306E045
:100C000041FA02F3D040C2F1200291400843194654
:100C1000704700000048704720E3020810B5044602
:100C2000FFF7F8FF0068005D00F0010010BD000054
:100C30002DE9F34F8BB04FF0000801F10C000C468A
:100C40004FF0010B46460DF1080A0190626901213F
:100C500001989047051E2DD0252D2CD0216A88475C
:100C6000C0B16269012101989047216A8847002834
:100C7000F7D1411E62690198904700E0761CA16996
:100C80000B988847216A88470028F7D1E1690B98BB
:100C90008847DBE7A1690B9888470746A84201D13E
:100CA000761CD3E7E1690B9888477F1C02D1B8F125
:100CB000000F6FD047E1002762693D463946019831
:100CC00090472A2804D162690121019890470125A3
:100CD000DFF888926269012101989047A0F1300104
:100CE0000A290AD24F45E5DC07EB870100EB4107F3
:100CF000303FDFD445F01005ECE7E90601D46FF092
:100D000000476C280AD04C2814D0682815D06A28CF
:100D10000DD074281CD07A281AD01DE062690121F8
:100D2000019890476C2802D045F0040514E045F086
:100D300002050DE045F020050AE0626901210198F5
:100D40009047682802D045F0080505E045F40065A5
:100D50006269012101989047C4E9015765283DD097
:100D600019DC58287AD00CDC452837D004DC25283B
:100D700026D0412831D131E046282FD047282CD128
:100D80002CE05B2877D0612828D063287CD06428A9
:100D900023D15AE0D1E06F2848D008DC66281DD066
:100DA00067281BD0692821D06E2816D127E070282B
:100DB00045D0732868D0752847D078280DD14DE0EC
:100DC000A1690B988847054625283FF469AFE1697A
:100DD0000B9888476D1C3FF46AAFB4E023466A461F
:100DE0006FF001000B99AFF300809FE045F04000E9
:100DF0006060A80723464FF0000236D43EE0E807C3
:100E00007FF447AF2068011D21600068290501D5E6
:100E100006701BE7290701D5068017E7A90703D548
:100E2000F117C0E9006111E706600FE745F04000E7
:100E30006060A80723464FF0080216D41EE040F673
:100E40000E0125EA0100606016E045F04000606098
:100E5000A80723464FF00A0207D40FE045F04000F0
:100E60006060A80708D5234610226FF001000B9997
:100E7000AFF300805AE007E0234610226FF0010034
:100E80000B99FFF7CDFA51E04FF000094F464B4662
:100E9000632802D05B2807D041E02079C00601D446
:100EA0000120A06001273AE0626901210198904782
:100EB0005E2805D14FF001096269494601989047C3
:100EC000216939B900210A46534643F82120491CBB
:100ED0000829FADBB0B3216969B9C11700EBD16207
:100EE00053110AEB830122F01F02821A01200B68C2
:100EF000904003430B6062690121019890475D288F
:100F0000E8D1B9F1000F09D00020514651F8202056
:100F1000D24341F82020401C0828F7DB02AB2246D0
:100F200000976FF001000B99FFF720FB00280CDA07
:100F3000401C08D1BBF1000F05D04FF0FF300DB0C1
:100F4000BDE8F08FFFE74046F9E7E90701D108F176
:100F5000010806444FF0000B78E60000CCCCCC0C26
:100F60002DE9F05F82460078002715468B460AF18E
:100F70000104B946302801D09DB113E014F8010BEB
:100F80000127782803D0582801D045B10AE00DB1D7
:100F9000102D07D10027102514F8010B02E00825B9
:100FA00000E00A250026B0460EE005FB080005FB20
:100FB00006F1012701EB10461FFA80F8B6F5803FD5
:100FC00000D3B94614F8010B2946FFF7ACFB002803
:100FD000EBDABBF1000F05D00FB1641E00E0544600
:100FE000CBF80040B9F1000F06D007F007FF02214F
:100FF0000160C81EBDE8F09F48EA0640FAE710B558
:10100000141E73F1000408DA401C41F1000192182B
:101010005B411A4301D120F0010010BD2DE9F04DD4
:1010200092469B4611B1B1FA81F202E0B0FA80F229
:1010300020329046FFF7BCFD04460F4640EA0A0006
:1010400041EA0B0153465A46084313D0114653EA6E
:10105000010019D0C8F140025046FFF7B8FD05461F
:101060000E46504659464246FFF7A2FD084305D0BA
:10107000012004E020463946BDE8F08D00200543FC
:1010800046EAE0762C4337430A986305E40AA0EB6E
:1010900008000022FD0A44EA47540A3002D5002025
:1010A0000146E9E7010510196941DDE90845001924
:1010B0006941BDE8F04DA2E770B58C1810F8015BEE
:1010C00015F0070301D110F8013B2A1106D110F8E1
:1010D000012B03E010F8016B01F8016B5B1EF9D1E5
:1010E0002B0705D40023521E0DD401F8013BFAE76B
:1010F00010F8013BCB1A921C03E013F8015B01F8D6
:10110000015B521EF9D5A142D8D3002070BD00006A
:1011100000B59BB00121880501F002F901210220F0
:1011200001F0FEF80121042001F0FAF80121080283
:1011300001F036F90121080201F042F900214FF4D3
:10114000807001F03DF900BF4F4800F0FEFB002821
:10115000FAD102904D4803904D480490002005902C
:1011600006200690002007904FF480600890400011
:10117000099080000A9040110B9040020C900420CE
:101180000D9001200E9000200F90109002A93E4873
:1011900000F03AFC00213C4800F014FB03200090D2
:1011A0008DF8040000208DF807006946394800F0EA
:1011B00011FE0D20009003208DF8040000208DF812
:1011C00007006946344800F005FE002011904FF4F6
:1011D00040301290002013904FF47060149011A8CA
:1011E00000F068F80020159001208DF858008DF867
:1011F0005900002017901890199006208DF868006B
:1012000015A922484C3800F083F807230122082151
:101210001E484C3800F0A6F80723022209211B487B
:101220004C3800F09FF8072303220A2117484C3856
:1012300000F098F8072304220C2114484C3800F0E1
:1012400091F8072305220D2110484C3800F08AF848
:10125000012000F0E9F801210C484C3800F04DF86D
:1012600001210A484C3800F03DF8012107484C386C
:1012700000F014F80121044800F0A4FA03484C38A7
:1012800000F0CCF81BB000BD106402404C200140BF
:10129000709C0020000402400008024021B18268D6
:1012A00042F00102826003E0826822F00102826063
:1012B000704700000021084A1168084A1140D0E92F
:1012C00000231A4383681A43C3681A431143044A2C
:1012D000C2F804137047000004230140E030FCFF13
:1012E0000020014021B1826842F48072826003E0F4
:1012F000826822F480728260704721B1826842F471
:101300000072826003E0826822F40072826070479B
:1013100030B50246002000235068104C20400D7963
:101320000C6844EA05242043506090680C4C20402F
:10133000D1E903542C438D682C434D7944EA45048C
:1013400020439060D06A20F470000C7D641EE4B2EB
:10135000234340EA0350D06230BD0000FFFEFFFC93
:10136000FDF7FFC0F0B504460D4600200021092D11
:1013700011DDE068A5F10A0606EB4607072606FA26
:1013800007F18843A5F10A0606EB460603FA06F1C3
:101390000843E0600CE0206905EB4507072606FAE4
:1013A00007F1884305EB450603FA06F1084320617F
:1013B000072A0FDA606B561E06EB86071F2606FA11
:1013C00007F18843561E06EB860605FA06F1084328
:1013D000606322E00D2A0FDA206BD61F06EB86072A
:1013E0001F2606FA07F18843D61F06EB860605FA84
:1013F00006F10843206310E0E06AA2F10D0606EB57
:1014000086071F2606FA07F18843A2F10D0606EBB0
:10141000860605FA06F10843E062F0BD816841F0F6
:10142000804181607047000038B10849096841F483
:101430000001074AC2F8041306E00449096821F4D0
:101440000001034AC2F8041370470000042301405E
:101450000020014070B504460D46EE2002F0AEFFBC
:10146000B12002F0ABFF222002F0A8FF200A02F018
:10147000A5FFE0B202F0A2FF280A02F09FFFE8B247
:1014800002F09CFFFF2002F099FFFC2002F096FF83
:10149000FF2002F093FFFF2002F090FF70BD70B5B7
:1014A00004460D46EE2002F089FFB12002F086FFCF
:1014B000202002F083FF200A02F080FFE0B202F059
:1014C0007DFF280A02F07AFFE8B202F077FFFF20E2
:1014D00002F074FFFC2002F071FFFF2002F06EFFAB
:1014E000FF2002F06BFF70BD10B50446EE2002F045
:1014F00065FFB12002F062FF122002F05FFF200AB8
:1015000002F05CFFE0B202F059FF10BD10B5FF2001
:1015100002F054FFFC2002F051FFFF2002F04EFFCA
:10152000FF2002F04BFF10BD70B504460D46200AA7
:1015300002F044FFE0B202F041FF002002F03EFF63
:10154000012002F03BFFE8B202F038FF70BD00BF9F
:10155000FEE770B500254FF4803404E0802001F0F0
:1015600023FA00B103E0201EA4F10104F6D100BF6C
:101570000CB9032070BD40F2FF5001F0EBF9284692
:10158000F8E7000070B5044605E01648056805F068
:10159000450000B100E0F8E700BF042001F004FAC4
:1015A00020B1042001F0D6F9032070BD012001F024
:1015B000FBF920B1012001F0CDF90120F5E7094840
:1015C00024380068A04201D01020EEE740F2FF501E
:1015D00001F0C0F903482038006808210840C0B273
:1015E000E3E70000342C014070B500264FF480354D
:1015F00005E01148046804F0450000B103E0281E2E
:10160000A5F10105F5D100BF15B104F0040028B122
:101610000326042001F09EF9304670BD012001F040
:10162000C3F918B10126012001F094F940F2FF50EE
:1016300001F090F93046F0E7342C014010B505E098
:101640000B48046804F0450000B100E0F8E700BF73
:10165000042001F0A9F920B1042001F07BF9032056
:1016600010BD40F2FF5001F075F90020F8E70000CE
:10167000342C01402DE9F04105460E464FF000089C
:1016800005E02048076807F0450000B100E0F8E7F2
:1016900000BF042001F088F928B1042001F05AF9B4
:1016A0000320BDE8F081012001F07EF920B1012086
:1016B00001F050F90120F4E7124824380068A842EC
:1016C00001D01020EDE740F2FF5001F043F90D4842
:1016D0002038046804F4604018B9200C308040467B
:1016E000DFE704F4005008B11320DAE704F4804087
:1016F00008B11020D5E704F4004008B10F20D0E76E
:101700004046CEE7342C014070B500264FF48035BA
:1017100005E00F48046804F0450000B103E0281E0E
:10172000A5F10105F5D100BF15B104F0040028B101
:101730000326042001F00EF9304670BD04F040008D
:1017400018B10026402001F005F93046F5E7000009
:10175000342C014010B50B490B4800F023F980B13F
:101760004FF0C051084800F013F800210648183027
:1017700000F028F80021044800F024F80120034973
:10178000086010BD0080001858600240B0824042DE
:101790000246094B9A4201D2084801E00648103837
:1017A00001F000531BB1064B0B40C36002E0044B39
:1017B0000B408360704700001064024000600240EC
:1017C0007D0F7D0F21B1026842F00102026003E04B
:1017D000026822F00102026070470000016821F0F7
:1017E000010101600021016041608160C16001610F
:1017F000212141614A49884204D13D21484A103A99
:1018000091608CE046491831884205D14FF47461EB
:10181000434A103A916082E041493031884205D113
:101820004FF474113E4A103A916078E03C494831D7
:10183000884205D14FF07461394A103A91606EE0E8
:1018400037496031884204D13649354A103AD1606F
:1018500065E033497831884204D13349304A103A3F
:10186000D1605CE02E499031884204D12F492C4A46
:10187000103AD16053E02A49A831884205D14FF08F
:101880003D51274A103AD16049E02949884204D1A4
:101890003D21274A083A116041E025491831884224
:1018A00005D14FF47461224A083A116037E02049AB
:1018B0003031884205D14FF474111D4A083A116045
:1018C0002DE01B494831884205D14FF07461184A18
:1018D000083A116023E016496031884204D1114969
:1018E000134A121F11601AE011497831884204D15D
:1018F0000D490F4A121F116011E00D4990318842C5
:1019000004D10A490A4A121F116008E00849A831A7
:10191000884204D14FF03D51054A121F11607047B3
:10192000106002403D000020400F002000003D20DC
:101930001064024021B1026842F02002026003E01C
:10194000026822F0200202607047014600200A6807
:1019500002F001020AB1012000E0002070470000FF
:1019600030B503460A46002000240B4DAB4201D29D
:101970000A4901E00849103902F000550DB14C68E0
:1019800000E00C68064D2C4004EA02050DB1012070
:1019900000E0002030BD0000106402400060024002
:1019A0007D0F7D0F70B50246002000240025124EE9
:1019B000B24201D2114B01E00F4B103B104E0E40D2
:1019C00036B11E2606EAD124166806EA040502E0AE
:1019D000566906F0800501F000560EB15C6800E023
:1019E0001C68084E344004EA010616B10DB101200E
:1019F00000E0002070BD0000106402400060024062
:101A00003C0F3C0F7D0F7D0F10B500220268134B79
:101A10001A40CC680B6823434C6923438C692343E9
:101A2000CC6923430C6A23434C6A23438C6A2343C7
:101A30004C6B23438C6B23431A430260426922F0B0
:101A40000702D1E90B3423431A4342610B69436017
:101A50004B6883608B68C36010BD00003F801CF042
:101A6000416070477047000030B5D1B00446214650
:101A700040A80DF02FFC054615B1284651B030BDE9
:101A800000BF49A940A80DF041FD054615B99DF8D4
:101A90002D0100B91BE09DF82D012E2800D1F0E7A3
:101AA0000DF22D1322460EA1684607F093F99DF81A
:101AB0002C0100F0100030B16846FFF7D5FF6846F2
:101AC0000DF0DFFD02E068460DF0DBFDD9E700BF59
:101AD00040A80CF07EFE20460DF0D3FDCEE70000BE
:101AE00025732F25730000002DE9FC4107460D46A4
:101AF0000026002400200090019008205B49086027
:101B000010204860402088600020C8604FF480604A
:101B10000861084600F094FF1020FFF733FD0446EB
:101B200014B12046BDE8FC815148008800044F49AB
:101B3000086037204860402088600020C8604FF46B
:101B400080600861084600F07BFF3720FFF71AFD30
:101B500004460CB12046E5E74FF0FF3045490860E8
:101B600008204860302088600220C860002008619A
:101B700001204861084600F0FDFE00203B49086056
:101B800033204860402088600020C8604FF48060A7
:101B90000861084600F054FF3320FFF7F3FC0446C9
:101BA0000CB12046BEE70CE04FF4001000F0FCFE44
:101BB00038B1314800684DF82600761C022E00D35B
:101BC00007E02D484C38006840F22A6108400028A0
:101BD000EAD000BF082000F0E7FE20B1082000F0A6
:101BE000B9FE04209EE7022000F0DEFE20B10220B4
:101BF00000F0B0FE022095E7202000F0D5FE20B1D5
:101C0000202000F0A7FE06208CE74FF4007000F0C3
:101C1000CBFE28B14FF4007000F09CFE072081E756
:101C200040F2FF5000F096FE00980006009901F483
:101C30007F4140EA0120009901F47F0140EA112030
:101C4000009940EA1160686001980006019901F46A
:101C50007F4140EA0120019901F47F0140EA11200F
:101C6000019940EA1160286020465BE7C89900208E
:101C700058010020DC990020802C0140F0B502467C
:101C80000D460023681E84B20026002102EB83006B
:101C9000D0ED000AF4EEC00AF1EE10FA01D81846B1
:101CA000F0BD02EB8400D0ED000AF4EEC00AF1EEC4
:101CB00010FA01DB2046F3E734E0181900EBD07787
:101CC000C7F34F0102EB8100D0ED000AF4EE400AA9
:101CD000F1EE10FA00D127E002EB8100D0ED000A0E
:101CE000F4EEC00AF1EE10FA0ADD481C02EB8000A7
:101CF000D0ED000AF4EEC00AF1EE10FA00D213E0C3
:101D000002EB8100D0ED000AF4EEC00AF1EE10FA09
:101D100001D20C4600E00B463046771CBEB2A8420A
:101D200000DD01E0A342C8DB00BFA34201DD0020CB
:101D3000B6E70846B4E700002DE9F84306464FEA47
:101D40002628F5B27F2D09DAA8F18100C0EB4011F9
:101D500001EB801005EB4000403884B2802D09DD96
:101D6000A8F18100C0EB401101EB801005EB4000B1
:101D7000413884B24FF6FF7000EA44040448211849
:101D80000222684606F0F0FE6F463888BDE8F88308
:101D900000C0F00030B5CC1000F1200353F824301F
:101DA0004C07E50E0F24AC40A343CD1000F12004F6
:101DB00044F82530CC1000F1200353F824304C07B0
:101DC000E40E02FA04F42343CD1000F1200444F899
:101DD000253030BDF0B50A4600210023002400BFA5
:101DE0003DE0012505FA01F3156805EA03049C426C
:101DF00034D105684F000326BE40B5430560157910
:101E00004E00B5400668354305601579012D02D0B6
:101E10001579022D16D185684F000326BE40B543C3
:101E2000856055794E00B5408668354385604568C4
:101E300001268E40B5434560456896798E40B6B21E
:101E400035434560C5684F000326BE40B543C560B5
:101E5000D5794E00B540C6683543C560491C102988
:101E6000BFD3F0BDF0B5002300244D07ED0E02FAFC
:101E700005F3CE1000F1200555F826504E07F70E59
:101E80000F26BE40B543CF1000F1200646F827507C
:101E9000CE1000F1200555F8265045EA0304CE1077
:101EA00000F1200545F82640F0BD2DE9F0470C462D
:101EB000DDE90867002100258C4600BF60E04FF097
:101EC000010808FA01F504EA050CAC4557D1D0F831
:101ED00000804FEA410A4FF0030909FA0AF928EA9B
:101EE0000908C0F80080D0F800804FEA410902FAE2
:101EF00009F948EA0908C0F80080012A01D0022A3D
:101F000027D1D0F808804FEA410A4FF0030909FAB7
:101F10000AF928EA0908C0F80880D0F808804FEAD2
:101F2000410906FA09F948EA0908C0F80880D0F81A
:101F300004904FF0010808FA01F829EA0809C0F8EE
:101F40000490D0F8048003FA01F948EA0908C0F8BF
:101F50000480D0F80C804FEA410A4FF0030909FAD7
:101F60000AF928EA0908C0F80C80D0F80C804FEA7A
:101F7000410907FA09F948EA0908C0F80C80491C28
:101F800010299CD3BDE8F08701464869806880B27B
:101F9000704708B50146D1F8CC0000680090009861
:101FA000C0F3414008BD024602F29F30405C7047DA
:101FB000024602F5557050F82100704770B504468E
:101FC0000E4600250021C4F8101300BF0BE00021CD
:101FD00004F5467040F825103C3040F825103C30A0
:101FE0004155681CC5B20F2DF1DB0821A4F8B613CA
:101FF0003146204605F0B2FD204605F0A5F9204601
:1020000005F06CF80121204605F010FE204605F091
:10201000F8F8204605F0F1F9002070BD0146D1F82E
:10202000100370470146D1F81403704710B50446F9
:10203000204605F072FD002010BD70B504460D4627
:10204000002104F29F304155113000EB45104161F1
:102050002946204605F010FC70BD00BFFEE70000D9
:102060001CB504460020019000902248008800041E
:10207000214908600D204860402088600020C86029
:102080004FF480600861084600F0DAFC1B480068E5
:10209000009002E0194800680090009800F04500A8
:1020A0000028F7D0012000F07FFC20B1012000F0D3
:1020B00051FC01201CBD042000F076FC20B104205E
:1020C00000F048FC0320F5E70C48243800680D2890
:1020D00001D01020EEE740F2FF5000F03BFC074833
:1020E0002038006801900198C0F343202070002040
:1020F000E0E7000058010020C8990020342C01407E
:102100002DE9F0410746884614461D46284600F052
:1021100033F8C5F1040007FA00F60F20284100EA61
:102120000800064306F00F06E21704EBD2625211D4
:10213000920002F1E022D2F800212146E31704EBDD
:10214000D3635B11A4EB431C012303FA0CF31A4382
:102150002046E31704EBD3635B119B0003F1E023FC
:10216000C3F800210348005D40EA06100149085504
:10217000BDE8F08100E400E00146072323EA010204
:102180001202054B18684FF6FF031840034B184323
:102190001043014B186070470CED00E00000FA0599
:1021A0004A0A52020243014B1A60704708ED00E0F0
:1021B00000BFFEE77047000070B5002100230F222A
:1021C000C4781CB3174C246804F4E064C4F5E064DC
:1021D000C4F30721C1F10404E3B20A4144789C40EE
:1021E000E1B28478144021430C07210E0E4C05788F
:1021F0006155047804F01F050124AC4005786D1189
:10220000AD0005F1E025C5F8004109E0047804F0CF
:102210001F050124AC40054D0678761145F826408F
:1022200070BD00000CED00E000E400E080E100E0A3
:1022300010B5024804F0B6F910BD0000A407002054
:10224000014908627047000000000E4270B5034665
:102250000A460025D2E90814691A75EB04001EDA53
:1022600011681069085C1870D2E90440641C40F1E0
:102270000000C2E90440D2E90315946850692C1BA0
:10228000884102DB002111615161D2E90860741EAE
:1022900060F10000C2E908400020014670BD012045
:1022A0000021FBE730B503990860C1E9022300254E
:1022B0000D614D618D61CD610D624D6200248C62B6
:1022C0000D634D638D63CD6330BD30B503460A4663
:1022D000D2E90850D2E90214691AA0411DDA116846
:1022E00090690B54D2E90610491C40F10000C2E984
:1022F0000610D2E90650D2E90214691AA04102DBA5
:1023000000219161D161D2E90810491C40F100001F
:10231000C2E908100020014630BD01200021FBE782
:1023200029B1064A12680243044B1A6004E0034ACA
:1023300012688243014B1A60704700003038024037
:1023400029B1064A12680243044B1A6004E0034AAA
:1023500012688243014B1A60704700003438024013
:1023600029B1064A12680243044B1A6004E0034A8A
:1023700012688243014B1A607047000040380240E7
:1023800029B1064A12680243044B1A6004E0034A6A
:1023900012688243014B1A607047000020380240E7
:1023A00029B1064A12680243044B1A6004E0034A4A
:1023B00012688243014B1A607047000044380240A3
:1023C00029B1064A12680243044B1A6004E0034A2A
:1023D00012688243014B1A607047000024380240A3
:1023E00010B501460022002300204A11012A02D123
:1023F0000A4C236808E0022A03D1084C7034236891
:1024000002E0064C7434236801F01F02012494405A
:102410001C400CB1012000E0002010BD003802403B
:102420000021094A11701170012802D0042808D136
:1024300003E00121044A117004E00521024A1170F1
:1024400000E000BF00BF70477038024001490860DB
:10245000704700003C0E4742002100F44072B2F584
:10246000407F08D1094A116821F4F811084A024056
:102470001143064A1160054A68321268C0F30B0323
:102480001A43024B68331A60704700000838024054
:10249000FFFCFF0F014600BF080900EB800042006F
:1024A00001F00F001044C0B270470146002204E062
:1024B000501CC2B2A1F10A00C1B20A29F8DA100711
:1024C00041EA10607047000008B500220092002029
:1024D0000021104A126802F04002CAB9421E0D4B98
:1024E0001A6000BF0B4A126802F04001009A521CA9
:1024F0000092009AB2F5803F01D00029F2D0054A3F
:10250000126802F040020AB1012002E0002000E05F
:10251000012008BD0C2800400348006820F080001E
:1025200001490860704700000C28004070B506465D
:102530000C4600250E4800680E4900EA0105280CEB
:10254000E070C5F30420607005F03F00A070C5F393
:10255000423020705EB9E078FFF79CFFE070607851
:10256000FFF798FF6070A078FFF794FFA07070BD30
:10257000042800403FFFFF0070B506460C460025CA
:102580000F4800680F4900EA0105C5F305402070B7
:10259000C5F30620607005F07F00A07005F4800090
:1025A000000CE0705EB92078FFF774FF207060784F
:1025B000FFF770FF6070A078FFF76CFFA07070BD30
:1025C000002800407F7F7F0030B504460025CA20E8
:1025D0001549086053200860FFF776FF00B91DE039
:1025E00011481C38006820F040000F491C39086071
:1025F00008460068216808430B491C3908600A49ED
:102600001439A068086008460068A18840EA0140C3
:10261000054914390860FFF77FFF0125FF200249B3
:102620000860284630BD00002428004008B5014657
:102630000020009004480090009800EB810000907A
:102640000098006808BD0000502800402DE9F041C6
:1026500005460C46002600274DB9607800F01000B2
:10266000102804D1607820F010000A30607005B99D
:1026700008E06078FFF70EFF0646A078FFF70AFF34
:10268000064600BF55B1E0780004617840EA0120B9
:10269000A1780843217840EA413611E0E078FFF75D
:1026A00004FF4FEA00486078FFF7FFFE48EA002881
:1026B000A078FFF7FAFE48EA0008207848EA40369A
:1026C000CA201249086053200860FFF7FDFE08B9D0
:1026D000002714E00E4830400C4920390860FFF70D
:1026E0001BFF0A481C38006800F0200030B900F0D9
:1026F0009DF808B9002702E0012700E00127FF202C
:10270000024908603846BDE8F081000024280040F6
:102710003FFFFF002DE9F04105460C46002600274B
:102720004DB92E48006800F0400000B102E00020E2
:10273000E07000BF0DE02948006800F0400020B1C3
:102740002078FFF7A7FE064602E00020E07000BFF9
:1027500000BF55B120780004617840EA0120A178DB
:102760000843E17840EA014611E02078FFF79DFE3A
:102770004FEA00486078FFF798FE48EA0028A07802
:10278000FFF793FE48EA0008E07848EA0046CA20CE
:1027900012491C31086053200860FFF795FE08B904
:1027A000002713E00E4830400C4908390860FFF755
:1027B000B3FE0A48006800F0200030B900F036F897
:1027C00008B9002702E0012700E00127FF200349A4
:1027D0001C3108603846BDE8F08100000828004040
:1027E0007F7F7F00F8B504460D4617461E468DF8DC
:1027F00002708DF801508DF800608DF80340694635
:102800000020FFF723FFF8BDF8B504460D46174634
:102810001E468DF800408DF801508DF802708DF83D
:10282000036069460020FFF775FFF8BD08B5002278
:10283000009200200021CA22134B1A6053221A6012
:10284000114A183A126822F0A0020F4B183B1A6086
:1028500000BF0D4A183A126802F02001009A521C7B
:102860000092009AB2F5003F01D00029F1D0064A4B
:10287000183A126802F020020AB1012000E000209C
:10288000FF22014B1A6008BD2428004008B5002231
:102890000092044A0092009A02EB80020092009A91
:1028A000116008BD502800407CB50546002400207A
:1028B0000090019000260DB1022600E0002622487B
:1028C000006800F0007008B10E207CBD1F49098827
:1028D00088B26946FFF708F904460CB12046F4E7D0
:1028E000019800F4802060B318480088000418495B
:1028F000086037204860402088600020C8604FF49E
:1029000080600861084600F09BF83720FEF73AFE29
:1029100004460CB12046D8E70D48066006200C4955
:102920004860402088600020C8604FF480600861E3
:10293000084600F085F80620FEF724FE04462046EF
:10294000C3E72520C1E70000142C014058010020F6
:10295000C89900200149086070470000382C0140E8
:102960000146034A106820F0FF00084310607047DA
:10297000042C014000210B4B02681A601B1D4268A9
:102980001A601A1D116821F0F701D0E902231A43D9
:1029900003691A4343691A431143024A083211601A
:1029A00070470000242C014001460020034A1268B1
:1029B0000A400AB1012000E000207047342C014099
:1029C0000248006800F0030070470000002C01403E
:1029D00010B500F089FC10BD00210A4A116847F6C5
:1029E000FF629143027D83681A4343681A43C368B8
:1029F0001A4303681A4303691A431143014A1160D9
:102A000070470000042C014000200B490860091D9C
:102A10000860091D0860091D086007492431086025
:102A2000091D0860091D0860044803493831086021
:102A30000020091D08607047002C0140FF07C000FE
:102A40000021094B02681A601A1D11686FF30A0110
:102A5000D0E901231A43C3681A4303691A43114397
:102A6000014A121D11607047082C0140014908609D
:102A700070470000002C014070B590B004460E462F
:102A8000154600BF1A48FEF760FF0028FAD1184823
:102A9000FEF7A4FE4FF000600190164802900394E8
:102AA00004950020059006904FF480600790800008
:102AB00008908000099000200A904FF440300B905D
:102AC00004200C9003200D904FF400000E90801015
:102AD0000F9001A90648FEF797FF20210448FEF752
:102AE00029FF01210248FEF76DFE10B070BD000005
:102AF00058640240802C014070B5044600251648F9
:102B00000078032802D12725284670BD1248007896
:102B100038B111480078012803D00F480078022806
:102B200017D1B4F5805F02D127252846EDE7E0B242
:102B3000FFF7BAFE054665B90848006820F4C050A2
:102B40000649086008460068204308600846006897
:102B500008602846D9E7000054010020042C0140F9
:102B6000F0B5014600200022BD4B1B7881F856309D
:102B7000BC4B1B88A1F85430BB4B1B681A0E930941
:102B80000B70C2F383034B7002F003038B70B64BE0
:102B90001B68C3F30742CA70B34B1B88C3F30722F9
:102BA0000A71B14B1A784A715B681A0E1301CB8017
:102BB000AD4B5B68C3F30742CB8843EA1213CB806B
:102BC00002F00F030B72A84B9B88C3F30722D309B3
:102BD0004B72C2F380138B72C2F34013CB72C2F3F9
:102BE00000130B7300234B739D4B1B783BB19C4B25
:102BF0001B78012B03D09A4B1B78032B4FD19307E3
:102C00001B0D0B61984B1A790B6943EA82030B6128
:102C1000954B9B681A0E0B6943EA92130B61C2F342
:102C2000C2030B7502F007034B758F4B9B68C3F310
:102C3000074253098B75C2F38203CB7593075B0F71
:102C40000B76894B1B89C3F307220B7E43EAD21311
:102C50000B760B695B1C0024C1E912340B7E9B1CB4
:102C6000012606FA03F3DE17D1E91245A4FB037C23
:102C700005FB03C304FB0633C1E912730C7A01237D
:102C8000A3400B650024D1E912560B6DA5FB037C14
:102C900006FB03C305FB0433C1E912732CE0704B40
:102CA0001B78022B28D1704B1A7993069B0A0B6173
:102CB0006D4B9B681A0E0B6943EA02230B616A4B4A
:102CC0009B68C3F307420B6913430B61664B1B8977
:102CD000C3F307220B695B1C4FF40074A3FB04359C
:102CE00066000027A3FB064C05FB06C503FB075344
:102CF000C1E9124373100B65C2F3801301F8193F49
:102D000093065B0E4B70584B1A7A4B7843EAD213FA
:102D10004B7002F07F038B70534BDB681A0ED309A4
:102D2000CB70C2F341130B71C2F382034B71930753
:102D30001B0F8B714C4BDB68C3F307428B7943EA63
:102D400092138B71C2F34013CB7100230B7202F00C
:102D500001034B72444B9B89C3F30722D3098B7247
:102D6000C2F38013CB72C2F340130B73C2F3001390
:102D70004B73C2F381038B7302F00303CB733A4BA3
:102D80001A7B53080B7401234B74384B1B681A0EC3
:102D9000CA741939354B1B68C3F307421402CC853A
:102DA000324B1B88C3F30722CB8D1343CB852F4BAC
:102DB0001A7814060C635B681A0E0B6B43EA024424
:102DC0000C632A4B5B68C3F307420B6B43EA022494
:102DD0000C63264B9B88C3F307220B6B13430B63D7
:102DE000224B1A7934235A54204B9B681A0E3523F0
:102DF0005A541E4B9B68C3F3074214068C631B4B4B
:102E00001B89C3F307228B6B43EA02448C63174B85
:102E10001A7A8B6B43EA02248C63144BDB681A0E1C
:102E20008B6B13438B63114BDB68C3F307423C236B
:102E30005B5C43EA12143C235C5413071C0DCC87E3
:102E40000A4B9B89C3F30722CB8F1343CB87074BD6
:102E50001A7B540840235C54012441235C54F0BD88
:102E60005401002058010020F4990020049A002009
:102E70003EB50024002501214448FFF751FA012105
:102E8000C802FFF78DFA0121C802FFF799FA4FF443
:102E9000F850019002208DF808008DF809000020FC
:102EA0008DF80A0001208DF80B0001A93848FEF7C3
:102EB00091FF0420019001A93648FEF78BFF0C22F8
:102EC00008213348FEF7CEFF0C2209213048FEF7D7
:102ED000C9FF0C220A212E48FEF7C4FF0C220B2149
:102EE0002B48FEF7BFFF0C2211462948FEF7BAFF18
:102EF0000C2202212748FEF7B5FF00214FF40060A5
:102F0000FFF75EFAFFF780FD31208DF8000000200A
:102F10008DF801008DF8020001208DF8030068464D
:102F2000FFF74AF900F0EEF8044614B900F038F85B
:102F300004461CB91848FFF713FE044634B9164975
:102F4000B1F85410080400F06FFD044624B94FF4A2
:102F50000060FFF7D1FD04461CB11048007803283B
:102F600012D10D4890F8560020B10B4890F8560049
:102F7000012801D1022500E000252846FFF7F0FCDA
:102F8000002000F069FD044620463EBD0C004000D4
:102F900000080240000C0240189A00205401002052
:102FA00038B5002401200090FFF70AFD10B9252450
:102FB000204638BD4D480078042824D000204C49D4
:102FC000086002204860C02088600020C8604FF47C
:102FD000806008610846FFF733FDFEF705FB0446F5
:102FE0000CB12046E5E74348006843490860414882
:102FF000001D006848603F480830006888603D4810
:103000000C300068C8603948007858B137480078FB
:10301000012807D035480078062803D033480078C7
:10302000022816D100203249086003204860402061
:1030300088600020C8604FF4806008610846FFF790
:10304000FFFC69460320FEF715FB04460CB1204641
:10305000AFE726480078032816D1BDF80000000429
:103060002349086003204860402088600020C86031
:103070004FF4806008610846FFF7E2FCFEF7B4FAFF
:1030800004460CB1204694E71848007804282AD05A
:10309000BDF8000019490860BDF80000000414499B
:1030A000086009204860C02088600020C8604FF494
:1030B000806008610846FFF7C3FCFEF795FA0446F6
:1030C0000CB1204675E70B4800680D4908600948B7
:1030D000001D00684860074808300068886005489F
:1030E0000C300068C860002063E700005401002035
:1030F000C8990020142C0140049A00205801002097
:10310000F49900202DE9F04700270024002600252F
:10311000A046A14676206E490875002008604860E8
:103120008860C86008610846FFF756FC0320FFF777
:103130009DFC6848006840F480706649086000BFE4
:1031400012E000206449086048608860C8604FF45D
:10315000806008610846FFF773FCFEF7FAF9044641
:1031600004B903E0781CC7B24A2FEADB00BF14B1F0
:103170002046BDE8F0874FF4D57057490860082015
:103180004860402088600020C8604FF4806008617B
:103190000846FFF755FCFEF7B7FA044624B90120AC
:1031A0004E4908704FF0804900204B490860372095
:1031B0004860402088600020C8604FF4806008614B
:1031C0000846FFF73DFC3720FEF7DCF90446002CEB
:1031D0004CD135E00020404908603720486040204D
:1031E00088600020C8604FF4806008610846FFF7DF
:1031F00027FC3720FEF7C6F904460CB12046B8E795
:10320000374849EA000034490860292048604020D6
:1032100088600020C8604FF4806008610846FFF7AE
:103220000FFCFEF70BFA04460CB12046A1E7294833
:1032300010300668012080EAD67080F001086D1C0D
:10324000B8F1000F03D14FF6FF708542C2D34FF69D
:10325000FF70854202D31B2420468AE706F0804097
:10326000061E33D002201D4908702FE01DE01D48C6
:103270001949086001204860402088600020C8602B
:103280004FF4806008610846FFF7DAFBFEF7D6F9D5
:1032900004460CB120466CE70E4810300668012049
:1032A00080EAD67080F001086D1CB8F1000F03D1E0
:1032B0004FF6FF708542DAD34FF6FF70854202D396
:1032C0001B24204655E7032004490870204650E798
:1032D000B0990020042C0140C8990020540100201E
:1032E000000010800080FF8010B54FF48070FFF761
:1032F0005BFB78B34C480078012814D100204B497F
:1033000008600C204860402088600020C8604FF4AE
:10331000806008610846FFF793FB0C20FEF732F946
:103320004349087002E000204149087041480068A4
:1033300040F480703F490860081D00684CF23A3143
:1033400088433C49091D086001203B490870384802
:10335000007810BDFFE70220FFF726FB78B10220BE
:10336000FFF7F8FA3348001D00684CF23A31884301
:103370003049091D086002202D490870E9E708203E
:10338000FFF712FB78B10820FFF7E4FA2948001D87
:1033900000684CF23A3188432649091D0860042030
:1033A00023490870D5E72020FFF7FEFA78B12020E6
:1033B000FFF7D0FA1F48001D00684CF23A318843ED
:1033C0001C49091D0860062019490870C1E7102032
:1033D000FFF7EAFA78B11020FFF7BCFA1548001D94
:1033E00000684CF23A3188431249091D08600520F3
:1033F0000F490870ADE74FF40070FFF7D5FA80B1C0
:103400004FF40070FFF7A6FA0A48001D00684CF25E
:103410003A3188430749091D0860072004490870AC
:1034200097E7002095E700005D010020C899002083
:103430005E010020382C01405F0100202DE9F84F8B
:103440008146174698460A9C4FF0000AD3464D46DF
:103450004FF0FF36B9F1000F02D12620BDE8F88FFA
:1034600000208549086085480078022805D10402BB
:10347000780A40EAC8574FEA6828002080498860E7
:103480004860401E0860012048610020C860086153
:103490000846FFF76FFA78481838006800F00070A7
:1034A00008B10E20DAE7002C21DDB4F5006F1EDC38
:1034B000601E2040D8B9204606F004FE00907148F6
:1034C000046010206F494860402088600020C86078
:1034D0004FF4806008610846FFF7B2FA1020FEF74B
:1034E00051F88246BAF1000F03D05046B6E72620C5
:1034F000B4E70098000162498860084644604FF0D4
:10350000FF300860012048610220C8600020086187
:103510000846FFF72FFA5B480760112059494860B9
:10352000402088600020C8604FF480600861084631
:10353000FFF786FA1120FEF725F88246BAF1000F50
:1035400001D050468AE75048007800285AD172B618
:1035500018E04FF40040FFF727FA78B14FF0000B66
:1035600006E045485430006845F82B000BF1010B8C
:10357000BBF1080FF5D32035444E03E00EB904200B
:103580006CE7761E3C480830006840F22A6108402B
:103590000028DED00820FFF707FA20B10820FFF747
:1035A000D9F904205AE70220FFF7FEF920B10220E2
:1035B000FFF7D0F9022051E72020FFF7F5F920B1FD
:1035C0002020FFF7C7F9062048E74FF40070FFF707
:1035D000EBF928B14FF40070FFF7BCF907203DE785
:1035E00004E025485430006828602D1D4FF4001079
:1035F000FFF7DAF90028F4D162B640F2FF50FFF786
:10360000A9F936E020480078012832D1002020496D
:103610000870204908702049087017481030006869
:1036200040F22A31084314491031086012480068FA
:1036300040F0080010490860002221464846FFF784
:103640001BFA00E0761E1548006800F0006038B9EB
:103650001148007820B90E48007808B9002EF1D141
:103660000EB90420FAE60A48007810B1084890F82C
:1036700000A05046F2E600002C2C0140540100202E
:10368000DC990020C89900205C010020FFFF7F002A
:103690005E0100205D0100205F0100200064024007
:1036A0002DE9FE4F83460C469146002002900026ED
:1036B00025462C46700240EAD5566D020BF00300F9
:1036C000F0B14FF0000A18E04FF4007000904FEA9C
:1036D0004A20471946EBE0733A461648FFF7AEFE1C
:1036E00002904FF4007213495846FCF7FCFD0BF5AD
:1036F000007B0AF1010000F0FF0ACA45E4DB16E096
:10370000B9F1010F09D14FF400702A4633460090F9
:103710005846FFF793FE029009E04FF400702A46E6
:103720003346CDE90009584600F006F802900298A9
:10373000BDE8FE8F709A00202DE9FF5F174698467E
:10374000DDE90E464FF00009CA464FF0FF35AB49A0
:10375000009808600020AA490860AA48007802285A
:1037600005D10402780A40EAC8574FEA68280020C9
:10377000A54988604860401E08600120486100201B
:10378000C86008610846FFF7F5F89D4818380068DA
:1037900000F0007018B10E2004B0BDE8F09F002CBE
:1037A00021DDB4F5006F1EDC601E2040D8B9204634
:1037B00006F088FC834695480460102093494860D1
:1037C000402088600020C8604FF48060086108468F
:1037D000FFF736F91020FDF7D5FE8146B9F1000F4D
:1037E00003D04846D8E72620D6E7012E70D906FB3D
:1037F00004F0B0F1007F01D32620CDE74FEA0B1093
:103800008149886006FB04F048604FF0FF30086093
:10381000012048610220C860002008610846FFF7C7
:10382000A9F87A48076012207849486040208860EB
:103830000020C8604FF4806008610846FFF700F977
:103840001220FDF79FFE8146B9F1000F01D04846D6
:10385000A2E76F48007800287ED172B61EE04FF4D0
:103860000040FFF7A1F8A8B14FF0000A08E0644853
:10387000543000686149096841F82A000AF1010AD8
:10388000BAF1080FF3D35D48006820305B49086047
:10389000604D03E00DB904207EE76D1E58480830E6
:1038A000006840F22A3108400028D8D00820FFF7ED
:1038B0007BF820B10820FFF74DF804206CE70220C8
:1038C000FFF772F828B10220FFF744F8022063E7FF
:1038D00091E02020FFF768F820B12020FFF73AF8A8
:1038E000062059E74FF40070FFF75EF828B14FF457
:1038F0000070FFF72FF807204EE70AE040485430E9
:1039000000683E49096808603C480068001D3B4962
:1039100008604FF40010FFF747F80028EED14FF48D
:103920008070FFF741F820B33648007838B1354849
:103930000078012803D033480078022819D10020EC
:10394000324908600C204860402088600020C86030
:103950004FF48060086100E011E00846FFF770F85E
:103960000C20FDF70FFE8146B9F1000F01D048464B
:1039700012E762B640F2FF50FEF7ECFF3BE024484E
:103980000078012837D100202349087001202349FD
:10399000087000202249087019481030006840F271
:1039A0002A3108431649103108601548006840F074
:1039B00008001349086006FB04F100220098FFF795
:1039C0005BF800E06D1E1748006800F0006008B961
:1039D000002DF7D10DB90420DEE600BF10480078B5
:1039E00018B90D4800780028F8D00B48007810B1BD
:1039F000094890F800904846CEE60000600100209B
:103A00002C2C014054010020DC990020C899002092
:103A10005C010020FFFF7F005E0100205D010020AF
:103A20005F0100200064024010B5044609480460AC
:103A3000072008494860402088600020C8604FF493
:103A4000806008610846FEF7FBFF0720FDF79AFD3E
:103A500010BD0000C899002001460020012900D0B7
:103A600011B9024B197000E0262070475C0100205C
:103A70002DE9FF5F86B017469846149D002600206A
:103A8000059004900024814603908246029001959F
:103A9000DDF818B0DDF818B0BBF1000F03D1262017
:103AA0000AB0BDE8F09F0020C8490860C849886096
:103AB0004860401E0860012048610020C86008611D
:103AC0000846FEF757FFC1481838006800F000703C
:103AD00008B10E20E4E7BF480078022805D10502AE
:103AE000780A40EAC8574FEA6828002D1FDDB5F56F
:103AF000006F1CDC681E2840C8B9284606F0E2FAB0
:103B00000590B54805601020B349486040208860A2
:103B10000020C8604FF4806008610846FEF790FFFF
:103B20001020FDF72FFD06461EB13046B8E72620CF
:103B3000B6E7AA4800880004A74908600D2048603D
:103B4000402088600020C8604FF48060086108460B
:103B5000FEF776FF0D20FDF715FD06460EB1304647
:103B60009EE79A481838006803904FF0FF341CE035
:103B7000641E9A4800880004974908600D20486038
:103B8000402088600020C8604FF4806008610846CB
:103B9000FEF756FF0D20FDF7F5FC06460EB1304648
:103BA0007EE78A48183800680390039800F4807014
:103BB00008B9002CDCD10CB9292071E786480760D0
:103BC000182085494860402088600020C8604FF474
:103BD000806008610846FEF733FF1820FDF7D2FC2D
:103BE00006460EB130465BE700207D490870059817
:103BF000000177498860084645604FF0FF30086053
:103C0000012048610020C86008610846FEF7B2FE46
:103C10004FF0FF347348007800287CD172B645E03D
:103C20004FF48040FEF7C0FED8B30198A0EB090026
:103C3000202822D20198A0EB090000F0030020B94F
:103C40000198A0EB0900800804E00198A0EB0900AE
:103C50008008401C02904FF0000A0AE05B49543192
:103C6000DBF8000008600AF1010A0BF1040B09F10E
:103C7000040902988245F1D310E04FF0000A06E0F3
:103C80005BF82A005149543108600AF1010ABAF17F
:103C9000080FF5D30BF1200B09F120096FF0404418
:103CA00004E0FFE70CB90420FAE6641E4748083038
:103CB000006840F21A6108400028B1D00820FEF7E1
:103CC00073FE20B10820FEF745FE0420E8E602203E
:103CD000FEF76AFE20B10220FEF73CFE0220DFE67E
:103CE0001020FEF761FE20B11020FEF733FE052004
:103CF000D6E64FF40070FEF757FE30B14FF4007077
:103D0000FEF728FE0720CBE605E062B640F2FF5042
:103D1000FEF720FE41E03348007801283DD1002025
:103D2000314908702E490870304908702748103012
:103D3000006840F21A3108432449103108604022DB
:103D400029460698FEF798FE2048006840F00800D3
:103D50001E49086000E0641E2548006800F000600D
:103D600008B9002CF7D11CB9FFF782F8042097E6B8
:103D70004FF0FF3400E0641E1C48007820B91A4858
:103D8000007808B9002CF6D10CB9042088E6164852
:103D9000007810B11448007882E640F2FF50FEF738
:103DA000D9FD04A8FEF75CF9064603E004A8FEF777
:103DB00057F906463EB99DF810000728F6D09DF841
:103DC00010000628F2D030466AE600002C2C014094
:103DD000DC99002054010020C899002058010020DF
:103DE0005D0100205C0100205E0100205F010020D9
:103DF000006402402DE9FE4F81460C4692460020A9
:103E00000290002625462C46700240EAD5566D02E7
:103E100009F00300F0B14FF0000B18E04FF400720E
:103E200049461948FCF75FFA4FF4007000904FEADA
:103E30004B20471946EBE0733A461348FFF718FE4C
:103E4000029009F500790BF1010000F0FF0BD3455A
:103E5000E4DB16E0BAF1010F09D14FF400702A46F5
:103E6000334600904846FFF703FE029009E04FF406
:103E700000702A463346CDE9000A484600F006F8AD
:103E800002900298BDE8FE8F709A00202DE9FF5F36
:103E900084B0DDE91247002600200390029000253F
:103EA00080468146019007FB04FBDDF810A0DDF899
:103EB00010A0BAF1000F03D1262008B0BDE8F09F92
:103EC0000020DB490860DB4988604860401E0860CC
:103ED000012048610020C86008610846FEF74AFDDD
:103EE000D3481838006800F0007008B10E20E4E7ED
:103EF000D1480078022808D10402DDE90601400A11
:103F000040EAC1504912CDE90601002C1FDDB4F58D
:103F1000006F1CDC601E2040C8B9204606F0D2F8B5
:103F20000390C64804601020C4494860402088605F
:103F30000020C8604FF4806008610846FEF780FDED
:103F40001020FDF71FFB06461EB13046B5E72620C0
:103F5000B3E7012F7DD907FB04F0B0F1007F01D357
:103F60002620AAE7B448007838B1B3480078012881
:103F700003D0B148007802282DD1B1480088000450
:103F8000AE49086037204860402088600020C86043
:103F90004FF4806008610846FEF752FD3720FDF7B8
:103FA000F1FA06460EB1304687E7A44807601720AD
:103FB000A2494860402088600020C8604FF48060BB
:103FC00008610846FEF73CFD1720FDF7DBFA0646C0
:103FD0000EB1304671E7994906980860192048608B
:103FE000402088600020C8604FF480600861084667
:103FF000FEF726FD1920FDF7C5FA06460EB130463C
:104000005BE7039800018B49886007FB04F0486078
:104010004FF0FF300860012048610020C86008614F
:104020000846FEF7A7FC87480078002874D1451E93
:1040300072B643E04FF48040FEF7B6FCC8B3ABEB7A
:104040000800202821D2ABEB080000F0030028B9BB
:1040500000E0D5E0ABEB0800800803E0ABEB080024
:104060008008401C01904FF000090AE0704954316B
:10407000DAF80000086009F101090AF1040A08F100
:10408000040801988145F1D310E04FF0000906E0E3
:104090005AF8290066495431086009F10109B9F15B
:1040A000080FF5D30AF1200A08F120086FF0404507
:1040B00004E0FFE70DB90420FFE66D1E5C48083000
:1040C000006840F21A3108400028B3D00820FEF7FB
:1040D0006BFC20B10820FEF73DFC0420EDE6022039
:1040E000FEF762FC20B10220FEF734FC0220E4E679
:1040F0001020FEF759FC20B11020FEF72BFC052004
:10410000DBE64FF40070FEF74FFC30B14FF4007067
:10411000FEF720FC0720D0E62BE04FF48070FEF77E
:1041200043FC00B34448007838B143480078012884
:1041300003D041480078022815D100203F4908608B
:104140000C204860402088600020C8604FF48060E8
:1041500008610846FEF774FC0C20FDF713FA0646CA
:104160000EB13046A9E662B640F2FF50FEF7F2FB10
:1041700046E034480078012842D1002032490870D6
:104180000120324908700020314908702848103059
:10419000006840F21A31084325491031086007FBD6
:1041A00004F140220498FEF767FC2148006840F0C3
:1041B00008001F4908604FF0FF3500E06D1E2548DC
:1041C000006800F0006008B9002DF7D11DB9FEF7B6
:1041D0004FFE042071E64FF0FF3500E06D1E1C48D5
:1041E000007820B91848007808B9002DF6D10DB92B
:1041F000042062E61448007810B1134800785CE6A9
:1042000040F2FF50FEF7A6FB02A8FDF729FF064685
:1042100003E002A8FDF724FF06463EB99DF808001A
:104220000728F6D09DF808000628F2D0304644E66C
:104230002C2C0140DC99002054010020C89900205A
:10424000580100205C0100205E0100205D0100207B
:104250005F0100200064024070B50546002412F0A2
:10426000ABFD07E0601C84B24FF6FE70844201DBB8
:10427000002070BD0F48008800F002000028F1D037
:104280000C48001D0580002407E0601C84B24FF636
:10429000FE70844201DB0020EBE70648008800F056
:1042A00001000028F1D012F0B1FD0248001D008885
:1042B000C0B2DEE70838004021B1028842F0400277
:1042C000028004E002884FF6BF731A4002807047F4
:1042D00010B504462448844208D101218014FEF719
:1042E0006FF80021A014FEF76BF83CE01F488442F1
:1042F00008D101210014FEF743F800212014FEF735
:104300003FF830E01A48844208D10121C013FEF77B
:1043100037F80021E013FEF733F824E01548844213
:1043200008D101214014FEF74BF800216014FEF77C
:1043300047F818E01048844209D101210805FEF72A
:104340003FF800214FF48010FEF73AF80BE00B48DD
:10435000844208D101214805FEF732F800214FF4CC
:104360000010FEF72DF810BD00300140003800406D
:10437000003C004000340140005001400054014026
:1043800010B50022028802F441520B884C88234366
:104390008C882343CC8823430C8923434C892343B3
:1043A0008C892343CC8923431A430280838B4FF2A9
:1043B000FF74234083830B8A038210BD01B5034A37
:1043C0000121684611F02EFE08BD0000E80400201F
:1043D00010B5044603E02078FFF7F0FF641C207856
:1043E0000028F8D110BD10B50446EE20FFF7E6FF17
:1043F000B120FFF7E3FF0020FFF7E0FF200AFFF7FF
:10440000DDFFE0B2FFF7DAFFFF20FFF7D7FFFC2068
:10441000FFF7D4FFFF20FFF7D1FFFF20FFF7CEFF0C
:1044200010BD00000CB500200190009034480068D9
:1044300040F480303249086000BF3148006800F421
:10444000003000900198401C0190009818B9019824
:10445000B0F5A04FF1D12A48006800F4003010B147
:104460000120009001E0002000900098012846D132
:1044700023484030006840F08050214940310860B6
:104480002048006840F440401E4908601C4808303D
:1044900000681B49083108600846006840F4004085
:1044A00008600846006840F4A05008601648091FDC
:1044B0000860081F006840F08070091F086000BF96
:1044C0000F48006800F000700028F9D040F2057035
:1044D0000E4908600A480830006820F003000849C7
:1044E000083108600846006840F00200086000BF1C
:1044F00003480830006800F00C000828F8D10CBD13
:10450000003802400070004008544007003C024060
:1045100070B504460D461646EE20FFF74FFFB1205A
:10452000FFF74CFF1020FFF749FF200AFFF746FF77
:10453000E0B2FFF743FF280AFFF740FFE8B2FFF7BA
:104540003DFF3046FFF744FFFF20FFF737FFFC2019
:10455000FFF734FFFF20FFF731FFFF20FFF72EFFAB
:1045600070BD0000F0B504460D4616461F461448BF
:10457000006840F00100124908600020104908312D
:1045800008600F4800680F4908400D4908600E4850
:10459000091D0860081F006820F48020091F0860BA
:1045A000002007490C3108603B4632462946204628
:1045B00000F026F800210846FDF7F2FDF0BD0000EE
:1045C00000380240FFFFF6FE1030002410B500BF97
:1045D000102080F31188BFF34F8FBFF36F8F00BFA0
:1045E00014F0C6F818B14FF080500449086000BFBD
:1045F000002080F3118800BF10BD000004ED00E032
:10460000F0B504460D46002100203D4E366846F4C4
:1046100080363B4F3E6001E04E1CB1B2384E3668EA
:1046200006F400361EB941F6FF76B142F4DB41F6DE
:10463000FF76B14201D1012060E0314E403636684C
:1046400046F080562E4F40373E602E4E366846F478
:1046500040462C4F3E602A4E0836366846F41446D3
:10466000274F08373E60264E366826F08076244F66
:104670003E6045EA84160127C7EB520746EA074623
:1046800046EA036646F480061D4F3F1D3E603E1F0E
:10469000366846F080763F1F3E6000BF184E366891
:1046A00006F00076002EF9D0174E366846F4807674
:1046B000154F3E603E46366846F400763E603E4604
:1046C000366846F480663E603E46366846F005062B
:1046D0003E600B4E0836366826F00306084F083752
:1046E0003E603E46366846F002063E6000BF044E1D
:1046F0000836366806F00C06082EF8D1F0BD00002A
:104700000038024000700040003C0240014802496D
:10471000086070470400FA050CED00E010B515487C
:10472000006840F47000134908601348006840F0C6
:1047300001001149086000200F49083108600E4847
:1047400000680E4908400C4908600D48091D0860C2
:10475000081F006820F48020091F08600020064917
:104760000C310860FFF75EFE4FF0006001498039B0
:10477000086010BD88ED00E000380240FFFFF6FE43
:104780001030002410B501214C4800F0D4F8012865
:1047900026D14B480078012822D14948D0F80200A0
:1047A000401C4749C1F802000846D0F802006421C5
:1047B000B0FBF1F201FB120050B941488089401E64
:1047C0003F4988810846D0F80600401CC1F8060021
:1047D0003B48808928B906F0A5F9032038490870BC
:1047E00066E03748D0F8061042783648805CC0EB67
:1047F0000010B1EB800F5BD331484078401C30494A
:104800004870084641782F48083800EB410000887E
:104810002B4948810020C1F806002B48406800EE73
:10482000100A2948806800EE900A60EE200A2648A7
:10483000C06800EE100A60EE800A08464178214800
:104840001038405C00EE100AB8EE400A20EE800AF4
:10485000F2EE040A20EE200ABCEEC00A10EE100AA6
:104860001A4908601848406800EE100A1648806827
:1048700000EE900A60EE200A1348006900EE100A6C
:1048800060EE800A0E4841780E480C38405C00EE1D
:10489000100AB8EE400A20EE800AF2EE040A20EE7A
:1048A000200ABCEEC00A10EE100A0849091D086073
:1048B0000121024800F018F810BD0000000400407B
:1048C000B9190020B5190020600000203C08004004
:1048D00021B1028842F08002028004E002884FF693
:1048E0007F731A4002807047CA430282704721B129
:1048F000028842F00102028004E002884FF6FE7353
:104900001A400280704731B1B0F8442042F40042AE
:10491000A0F8442005E0B0F84420C2F30E02A0F84D
:10492000442070471AB183890B43838102E0838955
:104930008B438381704730B502460020002300245A
:10494000158A05EA0103958905EA010413B10CB142
:10495000012000E0002030BD1AB183890B43838120
:1049600002E083898B4383817047000070B5002487
:1049700000220023058C4FF6EF7635400584028C2B
:104980008388048B48F6FF752C404FF6FF452C407A
:104990000D884FF6FF7606EA05252C434FF6DF75A6
:1049A0002A408D8906EA05152A434D8806EA051531
:1049B0002A43154DA84202D0144DA8421DD14FF6EE
:1049C0007F752A40CD894FF6FF7606EA05152A4302
:1049D0004FF6BF752A408D8806EA05152A434FF623
:1049E000FF352B404FF2FF752B400D8A06EA8505F7
:1049F0002B434D8A06EA85052B43838004838D680B
:104A00008563028470BD0000000001400004014085
:104A10000A460021018B4FF2FF7319404FF6FF73D6
:104A200003EA0223194301837047000070B5002494
:104A300000220023058C4FF6FF6635400584028C6A
:104A40008388848B4FF68F752C404FF6FC752C4075
:104A50000D882C434FF6FF552A408D894FF6FF767F
:104A600006EA05252A434D8806EA05252A43154D01
:104A7000A84202D0144DA8421DD14FF2FF752A4022
:104A8000CD894FF6FF7606EA05252A434FF6FF3516
:104A90002A408D8806EA05252A434EF6FF752B40ED
:104AA0004DF6FF752B400D8A06EA05152B434D8AFE
:104AB00006EA05152B43838084838D68C5630284D1
:104AC00070BD000000000140000401400A460021C2
:104AD000818B4FF6F77319401143818370470000B3
:104AE00070B5002200230024058C4EF6FF76354079
:104AF0000584038C8488828B48F6FF752A404FF624
:104B0000FF452A400D884FF6FF7606EA05252A4321
:104B10004DF6FF752B408D8906EA05352B434D88F0
:104B200006EA05352B430A4DA84202D0094DA8429A
:104B300008D14BF6FF752C400D8A4FF6FF7606EA3A
:104B400085152C43848082838D680564038470BD41
:104B500000000140000401400A460021818B4FF211
:104B6000FF7319404FF6FF7303EA02231943818351
:104B70007047000000220288184B98420ED0184B54
:104B800098420BD0B0F1804F08D0164B984205D018
:104B9000154B984202D0154B984204D14FF68F73B3
:104BA0001A404B881A43124B984207D0114B984237
:104BB00004D04FF6FF431A400B891A4302804B681A
:104BC000C3620B880385054B984202D0044B984280
:104BD00001D18B7A03860123838270470000014054
:104BE000000401400004004000080040000C0040A8
:104BF000001000400014004010B50B4811F0E2F91D
:104C000009480068808900F0100058B10648006823
:104C1000008800F0100028B10348006800880248AE
:104C20000068808810BD0000D803002010B50B4834
:104C300011F0C8F909480068808900F0100058B1E7
:104C400006480068008800F0100028B1034800689A
:104C5000008802480068808810BD000060040020C1
:104C6000F8B5044649F6A570844202DCA4F59C45DB
:104C700014E049F6A570844210DDB4F57F4F03DDE2
:104C80004FF66170844201DD0020F8BD4FF60170DF
:104C9000201A49F6A6710844A0F59C454FF470000F
:104CA00000EB45010222684603F05EFF9DF80060BC
:104CB0004FF6FF7000EA06269DF80100304486B2E8
:104CC0003046E2E710B500BF1021EFF3118081F309
:104CD0001188BFF34F8FBFF36F8F00BF04460448A6
:104CE00011F070F9204680F3118800BF10BD00005C
:104CF0004002002038B500BF1021EFF3118081F38E
:104D00001188BFF34F8FBFF36F8F00BF0446164863
:104D100011F058F914480068808900F01000E8B1DB
:104D200011480068008800F01000B8B10E48006813
:104D300000880D48006880886A4600210B4800689A
:104D400012F09CF900BF009838B14FF0805008492C
:104D50000860BFF34F8FBFF36F8F00BF00BF84F3B6
:104D6000118800BF38BD0000C80200208800002064
:104D700004ED00E038B500BF1021EFF3118081F39E
:104D80001188BFF34F8FBFF36F8F00BF04461648E3
:104D900011F018F914480068808900F01000E8B19B
:104DA00011480068008800F01000B8B10E48006893
:104DB00000880D48006880886A4600210B4800681A
:104DC00012F05CF900BF009838B14FF080500849EC
:104DD0000860BFF34F8FBFF36F8F00BF00BF84F336
:104DE000118800BF38BD0000500300208C00002057
:104DF00004ED00E038B500BF1021EFF3118081F31E
:104E00001188BFF34F8FBFF36F8F00BF0446164862
:104E100011F0D8F814480068808900F01000E8B15B
:104E200011480068008800F01000B8B10E48006812
:104E300000880D48006880886A4600210B48006899
:104E400012F01CF900BF009838B14FF080500849AB
:104E50000860BFF34F8FBFF36F8F00BF00BF84F3B5
:104E6000118800BF38BD0000E80400209000002039
:104E700004ED00E070B505460E46284600F0CCF97A
:104E800004464FF6FF70844205D046F4004105F514
:104E9000B26020F81410E0B270BD2DE9F041054673
:104EA0000E4617461C46012105F56C7000EB4410B8
:104EB000817005F56C7000EB4410C66005F56C70F0
:104EC00000EB4410076105F56C7000EB4410007EA8
:104ED00030B9002105F56C7000EB4410017205E05B
:104EE000022105F56C7000EB441001722146284642
:104EF000FDF7A3F80020BDE8F0812DE9F04105465B
:104F00000E4617461C46002105F56C7000EB441058
:104F1000817005F56C7000EB4410C66005F56C708F
:104F200000EB4410076105F56C7000EB4410407E07
:104F300028B905F56C7000EB4410017205E0022100
:104F400005F56C7000EB4410017221462846FDF710
:104F500074F80020BDE8F0812DE9F04105460C46CB
:104F600016461F4602212175012161750021E1824B
:104F70002683618306F08000802805D105F56C70DA
:104F800000EB4710017605E0002105F56C7000EBA1
:104F90004710417600231A462146284600F02BF898
:104FA000BDE8F08101460122C1F8102300207047BE
:104FB0002DE9F04105460E4617461C46012105F530
:104FC0006C7000EB44108170022105F56C7000EBF1
:104FD0004410017205F56C7000EB4410C66005F5D5
:104FE0006C7000EB4410076121462846FDF725F858
:104FF0000020BDE8F0812DE9F04180460C461546C1
:105000001E460127E078012802D0022820D108E0BE
:1050100032462946204601F08AFD0220E070012731
:1050200017E0207F0D2805D10120E07000212177B5
:1050300000270CE0207F0B2803D10120E07002271D
:1050400005E0207F0C2802D10120E070032700E05A
:1050500000BF00BF3846BDE8F0812DE9F0410546AC
:105060000F4616461C46002105F56C7000EB4410F7
:10507000817005F56C7000EB4410C76005F56C702D
:1050800000EB441006612EB9012105F56C7000EBB0
:105090004410417605F56C7000EB4410407E30B949
:1050A000002105F56C7000EB4410017205E002214F
:1050B00005F56C7000EB4410017221462846FCF7A0
:1050C000BCFF0020BDE8F08170B505460E461446D1
:1050D000002105F56C7000EB44108170032105F58B
:1050E0006C7000EB4410017205F56C7000EB44101D
:1050F000C660082105F56C7000EB44100161214683
:105100002846FCF79AFFC0B270BD0246022106E0B5
:10511000002302F5B26020F81130481CC1B2082902
:10512000F6DB0020704770B505460C460020207065
:105130006070A0700120E070012121774021A171F1
:10514000002084F8200001212120015521792846E2
:1051500000F031F86179284600F02DF8002070BD8C
:1051600010B504460021204601F06BFF0020E168E5
:105170008861401EE1684861204602F0E5F80021A0
:10518000C4F81013002010BD70B504460D46052D5F
:1051900001D0042D06D1D4F89010486C80470C2023
:1051A000207007E0062D05D10C202070D4F8901057
:1051B0000868804770BD0246082909DA02F5B26026
:1051C00030F81100C0F30E0302F5B26020F8113080
:1051D000002070472DE9F04780460C4616461D46D4
:1051E000DDE9089746F08001217506216175E582A9
:1051F00005F47F40B0F5407F03D140F2094121839F
:1052000001E00021218367833B464A462146404610
:10521000FFF7F1FEBDE8F0870246002100BF0AE07B
:1052200002F5B26030F8110000F4004008B90846F9
:105230007047481CC1B20829F2DB4FF6FF70F7E750
:1052400010B502460B88147823440B801378981805
:1052500010BD00002DE9FC4704460D4616464FF0F0
:10526000000804F588704FF4007300222946CDE948
:1052700000062046FFF7AEFFB0F100091BD10AE09F
:1052800004F5887010F808000C4901F8080008F1CE
:1052900001001FFA80F8B045F2DB04F5887305F1D0
:1052A000500205F13E0105F13400009601F01CFAB0
:1052B000074607B1B9464846BDE8FC874C76012051
:1052C0002DE9FC4104460D46164604F588704FF45E
:1052D000807300222946CDE900062046FFF77AFFB9
:1052E000071E06D1324604F5887105F1220001F04F
:1052F00095FA3846BDE8FC812DE9FC47044688460E
:1053000015461E460A9F04F5887045F44073002236
:105310004146CDE900072046FFF75CFFB0F10009E8
:1053200005D13A46314604F5887001F0C6FA484680
:10533000BDE8FC872DE9F04106460C464FF0000819
:1053400000250021A174207F0C2878D2DFE800F02E
:1053500077060F3D466778939CC2D9F0627904F1D5
:1053600014013046FFF7B0FE02212177F1E06179A8
:105370003046FCF718FE0546012D1FD1207D00F0B8
:105380008007608B58B141F2883074490880802FC3
:1053900002D1032121770CE00521217709E0322099
:1053A0006E490880802F02D10921217701E0072171
:1053B00021773046FCF7E8FD208205E0032D03D17C
:1053C0000B2121770521A174C3E02379A2893046FE
:1053D000A168FFF7EDFD04212177BAE0217930467D
:1053E000FCF7E1FD0546012D01D109212177042DAE
:1053F00004D1607820700C2121770FE0032D02D1B9
:105400000B2121770AE03046FCF7BEFD218A401AC5
:1054100052490988884201D90B21217799E001215D
:10542000627906F56C7000EB421041766379A289CF
:105430003046A168FFF711FE0621217789E087E059
:1054400061793046FCF7AFFD0546012D02D10721F9
:1054500021770FE0042D04D1607820700C21217792
:1054600008E0022D02D10521217703E0032D01D1AF
:105470000B2121776DE02379002211463046FFF79A
:1054800097FD0821217764E021793046FCF78BFDF8
:105490000546012D04D1607820700D21217718E098
:1054A000032D02D10B21217713E03046FCF76CFD70
:1054B000218A401A29490988884202D90B2121777B
:1054C00007E0042D05D1607820700C2121774FF082
:1054D00003083EE0617906F56C7000EB4110407EF8
:1054E00080F00101627906F56C7000EB42104176A4
:1054F0006379002211463046FFF7AFFD0A2121777C
:1055000027E061793046FCF74EFD0546012D04D1B8
:10551000607820700D21217708E0022D02D1092149
:10552000217703E0032D01D10B21217711E0FFE763
:10553000A07B401CC1B2A173022902DC01212177AA
:1055400005E00821A174607820704FF0020800E0A7
:1055500000BF00BF4046BDE8F08100005C060020AF
:1055600070B592B005460C460126A0780A287BD279
:10557000DFE800F00525345A677B98B5D2DC0822B5
:1055800021462846FFF79CFEC0B994F82910A17166
:105590000120A070A0790021CDE9001061790023DD
:1055A0001A46284600F0CCFFA0790021CDE9001072
:1055B000217900231A46284600F0C2FFB9E01222E2
:1055C00021462846FFF77CFE38B9D4F89000C1691F
:1055D00004F1220088470220A070AAE0012221469F
:1055E000284601F07EFAF0B9022001F06BFD01209F
:1055F000A41CA077D4F88E10086A8047032020707E
:10560000002000900190A27FA1780346284600F078
:1056100097FF002000900190A27FA41E61790346AD
:10562000284600F08DFF84E0092221462846FFF736
:1056300011FE28B9E08EB0F5806F01DC0420A07067
:1056400077E0E28E21462846FFF704FE58B9D4F8E9
:10565000900004F1500204F13E01436A04F1340069
:1056600098470520A07064E062E094F8300088B1AB
:10567000FF20009094F8302002AB21462846FFF727
:105680003BFE70B9D4F89000816A02A888470620D2
:10569000A07006E0D4F89000816A28A08847062010
:1056A000A07046E094F8310088B1FF20009094F893
:1056B000312002AB21462846FFF71EFE70B9D4F810
:1056C0009000C16A02A888470720A07006E0D4F8BD
:1056D0009000C16A19A088470720A07029E094F8BB
:1056E000320088B1FF20009094F8322002AB2146AE
:1056F0002846FFF701FE70B9D4F89000016B02A8AC
:1057000088470820A07006E0D4F89000016B0BA039
:1057100088470820A0700CE094F8392021462846DC
:1057200001F0F2F908B90920A07002E0002600E0BB
:1057300000BF00BF304612B070BD00004E2F4100C8
:105740002DE9F04106460F4614461D46DDF8188047
:10575000304601F089FC002001F072FC2146304601
:10576000FFF7E1FCC4F88C50C4F89080394630460D
:10577000FCF724FCD4F8901008688047304601F00C
:1057800061FCBDE8F08170B505460C46212121750C
:10579000FF2161750021E1822183618300231A4684
:1057A00021462846FFF727FC70BD00002DE9F04197
:1057B00005460E461446012714B1012C12D108E00B
:1057C00010480378C27831462846FFF7C5FB0746E4
:1057D00009E00C484378827831462846FFF7BCFB45
:1057E000074600E000BF00BF07480068401C0649AC
:1057F000086008460068042800D904273846BDE838
:10580000F08100008C7801206406002010B502466B
:1058100000200023014C237010BD00007C78012083
:105820002DE9F04105460F46002601242846FCF7E5
:10583000F5FB20B3154801782846FCF7B9FB06466E
:105840000D2E01D002241CE0114800681149884245
:1058500016D10F48406810494968884211D10C4858
:10586000007B08B900240CE00948007B012801D125
:10587000012406E00648007B022802D1022400E051
:1058800002240648C4732046BDE8F0818C780120CC
:105890006C780120555342534C7801207C780120CC
:1058A000012812D10D490978491C0C4A1170114682
:1058B00009780A2905DA0621094A11700121D170F7
:1058C0000AE00A21064A117006E0022803D10A21E3
:1058D000034A117000E000BF7047000084060020FA
:1058E0007C78012070B505460C46A1212175FE216A
:1058F00061750021E1822183012161830123034A33
:1059000021462846FFF777FB70BD00009478012000
:105910002DE9F04781460F463E46012403254FF00E
:1059200000084846FCF77AFB002878D05E480078EB
:105930000B2875D2DFE800F0060D1E5566798A99AE
:105940009E44B000484600F0BBFA0120564908705A
:10595000A5E039464846FFF716FF044614B9022071
:1059600051490870032C04D102204F494870092086
:10597000087094E039464846FFF7B4FF0446BCB9C6
:105980004A48007A494981F84800084690F848009A
:1059900000280ADD4648007838B9012044490870DB
:1059A000D6F89010086C804779E003203E490870D3
:1059B000032C04D103203C494870092008706EE094
:1059C0007379002239464846FFF7C6FA04463CB9C7
:1059D0000020364981F84800334840783249087041
:1059E0005DE0484600F0E2FC05463DB904202E4942
:1059F000087000202F490870002402E02846FFF7B5
:105A00004FFF4CE0484600F0F3FB05464DB905203A
:105A100025490870002027490870002404E03FE071
:105A20003CE02846FFF73CFF39E0484600F0F8FA32
:105A300005463DB908201C49087000201D49087022
:105A4000002402E02846FFF72BFF28E0484600F03C
:105A50003DFC05462DB914484078134908700024D0
:105A600002E02846FFF71CFF19E03946484600F0DF
:105A700023F814E0D6F89010C86B804700F0FF08B8
:105A8000B8F1000F03D108200749087003E0B8F10E
:105A9000010F00D1062402E0042400E000BF00BF93
:105AA0002046BDE8F08700007C7801208C7801203A
:105AB00098060020840600202DE9F047804689469C
:105AC00000244046FCF7AAFA00287DD0F24800796D
:105AD00009287AD2DFE800F079051568CEFDFCFBD5
